{
  "contractName": "MedicalRecord",
  "abi": [
    {
      "constant": true,
      "inputs": [
        {
          "name": "",
          "type": "uint256"
        }
      ],
      "name": "records",
      "outputs": [
        {
          "name": "conditions",
          "type": "string"
        },
        {
          "name": "immunizations",
          "type": "string"
        },
        {
          "name": "medications",
          "type": "string"
        }
      ],
      "payable": false,
      "stateMutability": "view",
      "type": "function"
    },
    {
      "constant": true,
      "inputs": [],
      "name": "nextRecordNum",
      "outputs": [
        {
          "name": "",
          "type": "uint256"
        }
      ],
      "payable": false,
      "stateMutability": "view",
      "type": "function"
    },
    {
      "constant": false,
      "inputs": [
        {
          "name": "_conditions",
          "type": "string"
        },
        {
          "name": "_immunizations",
          "type": "string"
        },
        {
          "name": "_medications",
          "type": "string"
        }
      ],
      "name": "newRecord",
      "outputs": [
        {
          "name": "recordID",
          "type": "uint256"
        }
      ],
      "payable": false,
      "stateMutability": "nonpayable",
      "type": "function"
    },
    {
      "constant": false,
      "inputs": [
        {
          "name": "recordID",
          "type": "uint256"
        },
        {
          "name": "_conditions",
          "type": "string"
        },
        {
          "name": "_immunizations",
          "type": "string"
        },
        {
          "name": "_medications",
          "type": "string"
        }
      ],
      "name": "updateRecord",
      "outputs": [],
      "payable": false,
      "stateMutability": "nonpayable",
      "type": "function"
    }
  ],
  "bytecode": "0x608060405234801561001057600080fd5b50610820806100206000396000f300608060405260043610610062576000357c0100000000000000000000000000000000000000000000000000000000900463ffffffff168063344610671461006757806396e8d14c146101e5578063a2035c1214610264578063e5b9b9f61461028f575b600080fd5b34801561007357600080fd5b5061009260048036038101908080359060200190929190505050610304565b60405180806020018060200180602001848103845287818151815260200191508051906020019080838360005b838110156100da5780820151818401526020810190506100bf565b50505050905090810190601f1680156101075780820380516001836020036101000a031916815260200191505b50848103835286818151815260200191508051906020019080838360005b83811015610140578082015181840152602081019050610125565b50505050905090810190601f16801561016d5780820380516001836020036101000a031916815260200191505b50848103825285818151815260200191508051906020019080838360005b838110156101a657808201518184015260208101905061018b565b50505050905090810190601f1680156101d35780820380516001836020036101000a031916815260200191505b50965050505050505060405180910390f35b3480156101f157600080fd5b5061024e6004803603810190808035906020019082018035906020019190919293919293908035906020019082018035906020019190919293919293908035906020019082018035906020019190919293919293905050506104f6565b6040518082815260200191505060405180910390f35b34801561027057600080fd5b5061027961066c565b6040518082815260200191505060405180910390f35b34801561029b57600080fd5b5061030260048036038101908080359060200190929190803590602001908201803590602001919091929391929390803590602001908201803590602001919091929391929390803590602001908201803590602001919091929391929390505050610672565b005b6001602052806000526040600020600091509050806000018054600181600116156101000203166002900480601f0160208091040260200160405190810160405280929190818152602001828054600181600116156101000203166002900480156103b05780601f10610385576101008083540402835291602001916103b0565b820191906000526020600020905b81548152906001019060200180831161039357829003601f168201915b505050505090806001018054600181600116156101000203166002900480601f01602080910402602001604051908101604052809291908181526020018280546001816001161561010002031660029004801561044e5780601f106104235761010080835404028352916020019161044e565b820191906000526020600020905b81548152906001019060200180831161043157829003601f168201915b505050505090806002018054600181600116156101000203166002900480601f0160208091040260200160405190810160405280929190818152602001828054600181600116156101000203166002900480156104ec5780601f106104c1576101008083540402835291602001916104ec565b820191906000526020600020905b8154815290600101906020018083116104cf57829003601f168201915b5050505050905083565b60006105dc878790501115801561051257506105dc8585905011155b801561052357506105dc8383905011155b151561052e57600080fd5b60008081548092919060010191905055905060606040519081016040528088888080601f016020809104026020016040519081016040528093929190818152602001838380828437820191505050505050815260200186868080601f016020809104026020016040519081016040528093929190818152602001838380828437820191505050505050815260200184848080601f0160208091040260200160405190810160405280939291908181526020018383808284378201915050505050508152506001600083815260200190815260200160002060008201518160000190805190602001906106219291906106cf565b50602082015181600101908051906020019061063e9291906106cf565b50604082015181600201908051906020019061065b9291906106cf565b509050508090509695505050505050565b60005481565b6000600160008981526020019081526020016000209050868682600001919061069c92919061074f565b5084848260010191906106b092919061074f565b5082828260020191906106c492919061074f565b505050505050505050565b828054600181600116156101000203166002900490600052602060002090601f016020900481019282601f1061071057805160ff191683800117855561073e565b8280016001018555821561073e579182015b8281111561073d578251825591602001919060010190610722565b5b50905061074b91906107cf565b5090565b828054600181600116156101000203166002900490600052602060002090601f016020900481019282601f1061079057803560ff19168380011785556107be565b828001600101855582156107be579182015b828111156107bd5782358255916020019190600101906107a2565b5b5090506107cb91906107cf565b5090565b6107f191905b808211156107ed5760008160009055506001016107d5565b5090565b905600a165627a7a723058207d329a5e482c23be152abe7e31ef07e549003a8b42918b93a2d9f7494ffdc0c20029",
  "source": "pragma solidity ^0.4.18;\n\n\ncontract MedicalRecord {\n    struct Record {\n        string conditions;\n        string immunizations;\n        string medications;\n    }\n\n    uint public nextRecordNum;\n\n    mapping (uint => Record) public records;\n\n    function newRecord(string _conditions, string _immunizations, string _medications) external returns(uint recordID) {\n\n        require((bytes(_conditions).length <= 1500) && (bytes(_immunizations).length <= 1500) && (bytes(_medications).length <= 1500));\n\n        recordID = nextRecordNum++;\n\n        records[recordID] = Record(_conditions, _immunizations, _medications);\n\n        return recordID;\n    }\n\n    function updateRecord(uint recordID, string _conditions, string _immunizations, string _medications) external {\n        Record storage con = records[recordID];\n\n        con.conditions = _conditions;\n        con.immunizations = _immunizations;\n        con.medications = _medications;\n    }\n}",
  "sourcePath": "/Users/Mario/Desktop/MyDoctor/finalProject/contracts/MedicalRecord.sol",
  "compiler": {
    "name": "solc",
    "version": "0.4.23+commit.124ca40d.Emscripten.clang"
  },
  "schemaVersion": "2.0.0",
  "updatedAt": "2018-06-27T17:29:14.053Z"
}